:100000000C9476010C949E010C949E010C949E011C
:100010000C949E010C949E010C949E010C94140F60
:100020000C94C80F0C949E010C949E010C949E019C
:100030000C949E010C949E010C949E010C949E01C4
:100040000C94CA0E0C949E010C94960F0C94700F95
:100050000C949E010C949E010C949E010C949E01A4
:100060000C94AB0D0C949E0100407A10F35A00A042
:10007000724E18090010A5D4E80000E87648170071
:1000800000E40B54020000CA9A3B000000E1F505B1
:10009000000080969800000040420F000000A086FB
:1000A00001000000102700000000E803000000002D
:1000B0006400000000000A000000000001000000D1
:1000C00000002C76D888DC674F0823DFC1DFAE59EB
:1000D000E1B1B796E5E3E453C63AE651997696E87E
:1000E000E6C28426EB898C9B62ED407C6FFCEFBC02
:1000F0009C9F40F2BAA56FA5F490055A2AF75C932D
:100100006B6CF9676DC11BFCE0E40D47FEF520E662
:10011000B500D0ED902E0300943577050080841E45
:10012000080000204E0A000000C80C333333330FA0
:10013000986E12831141EF8D2114893BE65516CF3D
:10014000FEE6DB18D1844B381BF77C1D901DA4BB49
:10015000E424203284725E228100C9F124ECA1E5FE
:100160003D274D6F74696F6E2064657465637465B7
:10017000642E004D6F74696F6E2070726F677261CC
:100180006D207472696767657265642E00417564DD
:10019000696F2064657465637465642E204C6576B0
:1001A000656C3A2000417564696F206C6576656CFA
:1001B0003A200017002860095802B004580258027B
:1001C0005802102D000000060026E02070100E02DC
:1001D0002A060E022602806E007E0B050026E02015
:1001E00070100E022A060E020E02004100000013DB
:1001F0000026801180113002900630023002006E1D
:100200000000001E002638081C040E022A060E02FA
:100210000E0200320000001C0026220B220BEE0210
:100220006608EE02EE02806E000000190026F6035A
:10023000BC050802BC050802D401004B0000001BED
:1002400000261F015D033E023E021F015D03A06EFA
:1002500000000004002604010C0304011C07040133
:100260000C03006E0000000B0025800DC006B001DD
:100270001005B001B0010082000000070026002335
:1002800080113002900630023002006E006E0B00CA
:10029000000000240027002A0000000008000201DE
:1002A0000000030407000000000000000000000040
:1002B00000250028002B000200000000230026007B
:1002C00029000404040404040404020202020202D9
:1002D000030303030303010204081020408001020A
:1002E00004081020010204081020FD1011241FBE74
:1002F000CFEFD8E0DEBFCDBF13E0A0E0B1E0E4EE89
:10030000FBE502C005900D92A639B107D9F726E0AA
:10031000A6E9B3E001C01D92A83DB207E1F711E0E4
:10032000C6E7D1E004C02197FE010E94142AC53718
:10033000D107C9F70E9481110C94F02D0C94000094
:1003400020917F06309180062817390728F4809184
:100350007D06816080937D060895209181058091BE
:100360007E0640E0281798F5422F417030918405B1
:10037000311121C0E22FF0E0E858FA4F838992E36F
:10038000899FF0011124ACEEBFEF442311F0A4E1EA
:10039000B0E06091850570918605CB0196958795B3
:1003A0008E0F9F1F8A0F9B1F0E94002A7727709332
:1003B0008305609382058091820590918305009763
:1003C00071F03F5F3817190620F430938405842FAD
:1003D0000895109284052F5F20938105F8CF42E0A5
:1003E000F6CFCF92DF92EF92FF92CF93DF93B0914F
:1003F0009506A0E08111AB2F8091960690E0880FC2
:10040000991FAC0148545D4FC0909B06D0909C064C
:10041000E0909D06F0909E0630E020E0FA01C59144
:10042000D491E881B90190E080E0EB23EA130AC09F
:100430002F5F3F4F6C157D058E059F0578F36FEF9D
:100440007FEFCB01DF91CF91FF90EF90DF90CF90C6
:1004500008958230910538F0880F991F880F991FF1
:1004600005970197F1F7089520916504260F33272A
:10047000331F21323105ECF420918B04FC0190E014
:1004800080E0243069F082E00895A0916504219114
:10049000AC014D5B5B4FA40FB52FB11D2C930196A2
:1004A000861798F380916504680F6093650480E077
:1004B000089581E00895089508950895E0913A041B
:1004C00080913904E81730F4F0E0E75EFB4F80815B
:1004D00090E008958FEF9FEF089590913A048091F6
:1004E00039042FEF3FEF981748F4E92FF0E0E75E6B
:1004F000FB4F208130E09F5F90933A04C90108953B
:100500008091390490913A04891B990B0895CF92F8
:10051000DF92EF92FF920F931F93CF93DF937C01B3
:10052000CB018A0120911804222389F0EB016B0191
:10053000C40ED51ECC15DD0569F06991D701ED918A
:10054000FC910190F081E02DC7010995F3CF642F54
:100550000E943402C801DF91CF911F910F91FF904B
:10056000EF90DF90CF900895CF93DF931F92CDB798
:10057000DEB76983209118042223F9F020913B040F
:10058000203258F021E030E0FC013383228390E0F8
:1005900080E00F90DF91CF91089580913C04E82F87
:1005A000F0E0E850FC4F998190838F5F80933C048A
:1005B00080933B0481E090E0ECCF61E0CE010196B6
:1005C0000E943402F7CF833081F028F4813099F013
:1005D0008230A9F008958730A9F08830C9F08430BE
:1005E000B1F4809180008F7D03C0809180008F776F
:1005F00080938000089584B58F7784BD089584B575
:100600008F7DFBCF8091B0008F778093B0000895ED
:100610008091B0008F7DF9CF1F93CF93DF93282F68
:1006200030E0F901E756FD4F8491F901EA52FD4FA0
:10063000D491F901EE53FD4FC491CC23A9F0162FAC
:1006400081110E94E302EC2FF0E0EE0FFF1FE35553
:10065000FD4FA591B4918FB7F894EC91111108C09A
:10066000D095DE23DC938FBFDF91CF911F9108954A
:10067000DE2BF8CF8091B704811107C061E082E0E2
:100680000E940C0381E08093B70408958091B80420
:10069000882331F060E083E00E940C031092B804DC
:1006A00008958091B704882331F060E082E00E94D1
:1006B0000C031092B70408958091B804811107C00B
:1006C00061E083E00E940C0381E08093B804089508
:1006D0008091B604823091F030F4882349F060E0D4
:1006E000813069F00895833069F0843029F00895ED
:1006F00061E084E00E940C0361E005C061E084E0F9
:100700000C940C0360E085E0FBCF10928B0481E039
:1007100080938D0410928C0461E082E10E940C03AE
:1007200061E083E10E940C03E9EBF0E080818E7FC1
:10073000808380818D7F808388E48093B80085E406
:100740008093BC000895CF93DF9391E0909342048F
:100750008823B9F0C091B800D091BA008091BC0054
:100760008A7B8093BC0060E082E10E940C0360E021
:1007700083E10E940C030E948503D093BA00C093CA
:10078000B800DF91CF910895CF93DF9390E0FC0103
:10079000EA52FD4F24918E539D4FFC018491882392
:1007A000C9F090E0880F991FFC01E157FD4FA5911A
:1007B000B491FC01E355FD4FC591D49161110DC079
:1007C0009FB7F8948C91209582238C93888128235D
:1007D00028839FBFDF91CF910895623051F49FB776
:1007E000F8943C91822F809583238C93E8812E2B63
:1007F000EFCF8FB7F894EC912E2B2C938FBFEACFCD
:100800003FB7F8948091F4039091F503A091F6031B
:10081000B091F70326B5A89B05C02F3F19F00196AC
:10082000A11DB11D3FBFBA2FA92F982F8827BC014A
:10083000CD01620F711D811D911D42E0660F771F72
:10084000881F991F4A95D1F708958F929F92AF9272
:10085000BF92CF92DF92EF92FF926B017C010E94D8
:1008600000044B015C01C114D104E104F104B9F0AE
:100870000E940004681979098A099B09683E73403F
:100880008105910580F321E0C21AD108E108F10841
:1008900088EE880E83E0981EA11CB11CE4CFFF9067
:1008A000EF90DF90CF90BF90AF909F908F90089582
:1008B000CF92DF92EF92FF92CF93DF93D82FCB01AD
:1008C000BA0120E030E04AE754E40E94A0280E94E8
:1008D000F92A6B017C01C0E00E945C03C701B601EC
:1008E0000E9425040E944603C701B6010E94250408
:1008F000CF5FDC13F1CFDF91CF91FF90EF90DF90CE
:10090000CF9008952FB7F8946091F0037091F103A0
:100910008091F2039091F3032FBF0895CF92DF925D
:10092000EF92FF920F931F93CF93DF93CDB7DEB774
:10093000C054D1400FB6F894DEBF0FBECDBF0E94A9
:1009400082040091970610919806209199063091A3
:100950009A066B017C01C01AD10AE20AF30A9701D8
:100960008601003D17402105310590F480919F06D6
:10097000C05CDE4F0FB6F894DEBF0FBECDBFDF9177
:10098000CF911F910F91FF90EF90DF90CF9008953E
:1009900060939706709398068093990690939A06B1
:1009A00010929206109291061092900610928F0665
:1009B00010928E0662E0809193060E94C40361E06B
:1009C00070E080E090E00E94250461E08091930651
:1009D0000E94C40360E0809193060E940C03809102
:1009E000940685518230E0F48BE291E10197F1F7B2
:1009F00062E0809193060E94C4038091A00690E07B
:100A00000E942902F89480E00E94F1016F3F7F4F1D
:100A10008F4F9F4F61F410929F06789480E0A8CF8B
:100A200064E170E080E090E00E942504E1CF81E085
:100A30000E94F1016F3F7F4F8F4F9F4F61F38E01F7
:100A40000F5F1F4F6E012FEBC21A2EEFD20A7801F3
:100A500080E00E94F101F7016083718382839383B8
:100A600081E00E94F101F701648375838683978397
:100A7000F8E0EF0EF11CEC14FD0451F7789430E02F
:100A800020E0F801C080D180E280F380448155816C
:100A900066817781FFEFCF16DF06EF06FF0631F0A4
:100AA0004F3F8FEF58076807780719F410929F0699
:100AB000B5CFF90183E0F595E7958A95E1F7E2571F
:100AC000F94F8081880FC416D506E606F70610F1A7
:100AD00080832F5F3F4F085F1F4F2832310589F613
:100AE0004091920620918E0680918F06280F332721
:100AF000331F80919006280F311D80919106820F3F
:100B0000932F911D99274817190681F681E080934C
:100B10009F062ECF8160DCCF9091580189130BC0C6
:100B2000E7EBF2E0E4919FEF90935801E13049F058
:100B300028F0E23061F060E00C940C0310926E003B
:100B4000FACF90916F009D7F90936F00F4CF9091BA
:100B500070009D7F9093700091E09093B000909111
:100B6000B100987F94609093B1001092B300E3CFEE
:100B70002F923F924F925F926F927F928F929F92AD
:100B8000AF92BF92CF92DF92EF92FF920F931F939B
:100B9000CF93DF9300D000D01F92CDB7DEB78C018A
:100BA0001B01CB01B0E0A0E089839A83AB83BC83B7
:100BB00080915801863019F18F3F09F4BCC06981DA
:100BC0007A818B819C810E94250486E00F900F9092
:100BD0000F900F900F90DF91CF911F910F91FF9089
:100BE000EF90DF90CF90BF90AF909F908F907F90CD
:100BF0006F905F904F903F902F900C948C05E7EB97
:100C0000F2E094919D8397FDDACF61E086E00E9447
:100C1000C403BD814801B12CA12CBB2301F1F12CEF
:100C2000E12C2D81223009F0F7C04801570160E91D
:100C300070ED83E090E0A70198010E94902969017E
:100C40007A0181E0C81AD108E108F10883E09FEF3A
:100C5000C916D104E104F10409F00CF465C060E0A8
:100C600072E18AE790E0A50194010E949029290190
:100C70003A0168E478EE81E090E0A50194010E94D9
:100C8000902969017A01A1E0CA1AD108E108F108A6
:100C9000BD81BB2309F422C1B23009F066C184E0F2
:100CA0002FEFC216D104E104F104F1F1ECF164E29A
:100CB00074EF80E090E0A50194010E949029690101
:100CC0007A0181E0C81AD108E108F10885E09FEFB8
:100CD000C916D104E104F10439F130F162E17AE797
:100CE00080E090E0A50194010E94902969017A01B9
:100CF000B1E0CB1AD108E108F10886E02FEFC21667
:100D0000D104E104F10481F07CF0730162012AE076
:100D1000F594E794D794C7942A95D1F721E0C21AA5
:100D2000D108E108F10887E09091B100987F892B04
:100D30008093B100F6C086E080935801E7EBF2E0C3
:100D4000A491AD83AF3F09F43ACFA13029F158F017
:100D5000A23009F43FC0BD81B7FD31CF61E086E02C
:100D60000E94C4035CCF14BC15BC84B5826084BDF2
:100D700085B5816085BDE8ECF2E0E491F0E0EE0F2E
:100D8000FF1FE355FD4F85919491ECEDF2E0E49166
:100D9000E093BD041D8239CF109280001092810033
:100DA00080918100886080938100809181008160C2
:100DB00080938100E8ECF2E0E491F0E0EE0FFF1F99
:100DC000E355FD4F85919491ECEDF2E0E491E093D1
:100DD000BC041BCF1092B0001092B1008091B00003
:100DE00082608093B0008091B10081608093B100F7
:100DF000E8ECF2E0E491F0E0EE0FFF1FE355FD4F69
:100E0000859194919093BB048093BA04ECEDF2E049
:100E1000E491E093B904F9CE60E072E18AE790E0F2
:100E2000A70198010E949029DA01C9010197A1093F
:100E3000B109009721E0A207B1056CF46C0191E0C3
:100E4000AD81A13009F06DC080918100887F892B30
:100E50008093810066C068E478EE81E090E0A701AD
:100E600098010E94902969017A0181E0C81AD1088D
:100E7000E108F10893E0E4CFD0928900C0928800A5
:100E80002093C2043093C3044093C4045093C50418
:100E900080916F00826080936F0091CEC092B3000A
:100EA0002093BE043093BF044093C0045093C10408
:100EB0008091700082608093700081CE7301620126
:100EC0009AE0F594E794D794C7949A95D1F781E086
:100ED000C81AD108E108F10895E01FC093E0AFEF10
:100EE000CA16D104E104F104C1F0BCF062E17AE772
:100EF00080E090E0A50194010E94902969017A01A7
:100F000091E0C91AD108E108F108AFEFCA16D1047F
:100F1000E104F10409F094F694E085B5887F892B0B
:100F200085BD9801220F331FD1010E94F12928EEBF
:100F300033E040E050E00E946E299D81913009F439
:100F40009BCF923009F4AACF911139CEC7BC209320
:100F5000C6043093C7044093C8045093C9048091D9
:100F60006E00826080936E002ACE84E0B0CE62E391
:100F700070E08BE092E00E94B80569E170E080E0EB
:100F800090E00E94250469E170E083E992E00E940C
:100F9000B80569E170E080E090E00E94250469E115
:100FA00070E080E193E00E94B80569E170E080E0C4
:100FB00090E00E94250464E670E080E793E00C94E2
:100FC000B8056CE271E08CED90E00E94B80564E633
:100FD00070E080E090E00E9425046CE271E08CED0E
:100FE00090E00C94B80564E170E081E490E00E9428
:100FF000B80564E670E080E090E00E94250464E1BA
:1010000070E081E490E00C94B805AF92BF92CF926B
:10101000DF92EF92FF920F931F93CF93DF936C01B8
:101020007B018B01040F151FEB015E01AE18BF0899
:10103000C017D10759F06991D601ED91FC9101904B
:10104000F081E02DC6010995892B79F7C501DF9163
:10105000CF911F910F91FF90EF90DF90CF90BF90B5
:10106000AF900895FC01538D448D252F30E0842FDF
:1010700090E0821B930B541710F0CF9608950197C0
:101080000895FC01918D828D981761F0A28DAE0FAD
:10109000BF2FB11D5D968C91928D9F5F9F73928F34
:1010A00090E008958FEF9FEF0895FC01918D828D60
:1010B000981731F0828DE80FF11D858D90E008952D
:1010C0008FEF9FEF0895FC01918D228D892F90E085
:1010D000805C9F4F821B91098F739927089586ED3D
:1010E00094E00E94630821E0892B09F420E0822F1C
:1010F000089580E090E0892B29F00E946F0881110B
:101100000C9400000895FC01A48DA80FB92FB11D07
:10111000A35ABF4F2C91848D90E001968F7399272D
:10112000848FA689B7892C93A089B1898C9183700B
:1011300080648C93938D848D981306C00288F38904
:10114000E02D80818F7D80830895EF92FF920F9331
:101150001F93CF93DF93EC0181E0888F9B8D8C8D63
:1011600098131AC0E889F989808185FF15C09FB757
:10117000F894EE89FF896083E889F989808183701A
:10118000806480839FBF81E090E0DF91CF911F91C9
:101190000F91FF90EF900895F62E0B8D10E00F5FEA
:1011A0001F4F0F731127E02E8C8D8E110CC00FB6C0
:1011B00007FCFACFE889F989808185FFF5CFCE0158
:1011C0000E948308F1CFEB8DEC0FFD2FF11DE35A48
:1011D000FF4FF0829FB7F8940B8FEA89FB898081DB
:1011E0008062CFCF0F931F93CF93DF938C01D0E01A
:1011F000C0E0F801EC0FFD1F6491662341F086ED1D
:1012000094E00E94A508892B11F02196F2CFCE011F
:10121000DF91CF911F910F910895CF93DF93EC0150
:10122000888D8823B9F0AA89BB89E889F9898C91CE
:1012300085FD03C0808186FD0DC00FB607FCF7CF8A
:101240008C9185FFF2CF808185FFEDCFCE010E948A
:101250008308E9CFDF91CF910895CF92DF92EF928B
:10126000FF920F931F93CF93DF93FC01C48121E082
:1012700020931804C093960310923C0410923B04F0
:101280008485682B8AEC94E00E94B402D0913B04E0
:10129000D13208F092C00E9400046B017C01809161
:1012A0008B04811165C082E080938B0481E0809380
:1012B0008D048FEF80938A041092AF04D093AE0414
:1012C000A8EFB3E0EEE8F4E080E0D81385C0109218
:1012D000B0048091B004CC0FC82BC093B0048091AF
:1012E0008C04813009F07CC010928C040E940004B0
:1012F0006B017C018091B0048093BB0080913E041F
:1013000090913F04A0914004B0914104892B8A2B15
:101310008B2B99F00E94000400913E0410913F0431
:1013200020914004309141046C197D098E099F0978
:101330000617170728073907E0F18091BC0083FDE5
:10134000D9CF85EC8093BC000E9400046B017C0126
:1013500080918B04823009F445C080918A048F3FCC
:1013600061F180918A04803241F180918A0425C024
:1013700080913E0490913F04A0914004B0914104BB
:10138000892B8A2B8B2B09F48ACF0E9400040091B1
:101390003E0410913F0420914004309141046C19A7
:1013A0007D098E099F09061717072807390708F0D6
:1013B00076CF80913D040E94A30310923C041092CA
:1013C0003B0410921804DF91CF911F910F91FF9071
:1013D000EF90DF90CF9008959D9191938F5F75CF9F
:1013E00085EEB0CF80913E0490913F04A0914004DF
:1013F000B0914104892B8A2B8B2B09F4A9CF0E9431
:10140000000400913E0410913F042091400430916B
:1014100041046C197D098E099F09061717072807D3
:10142000390708F095CFC5CF089590E080E0089582
:101430008F929F92AF92BF92CF92DF92EF92FF92E4
:101440004B015C010E9400046B017C0124E0C21A84
:10145000D108E108F1080E9400046C197D098E0989
:101460009F09681579058A059B05A8F3FF90EF9001
:10147000DF90CF90BF90AF909F908F90089542E300
:10148000489F9001499F300D11242C5E3F4F769567
:10149000679576956795CB01880F991F860F971FE3
:1014A0008217930750F485E0869FA001879F500D17
:1014B000112481E04217530708F480E0089542E3C5
:1014C000489F9001499F300D112424513109769590
:1014D000679576956795CB01880F991F860F971FA3
:1014E0008217930750F485E0869FA001879F500DD7
:1014F000112481E04217530708F480E008954F92C9
:101500005F926F927F929F92AF92BF92CF92DF9243
:10151000EF92FF920F931F93CF93DF93182F5A01EF
:10152000922EC62FD0E0C557DA4F412C512C3201F4
:101530004394C12CD12C76011123F1F09920B1F004
:101540008881B50190E00E945F0A002369F1CC0C0C
:10155000DD1CEE1CFF1C882311F06894C0F8440CBD
:10156000551C661C771C11502296E6CF8981B50167
:1015700090E00E943F0AE9CFC0925B06D0925C06E1
:10158000E0925D06F0925E06DF91CF911F910F9180
:10159000FF90EF90DF90CF90BF90AF909F907F90A3
:1015A0006F905F904F9008958823C9F2C428D52882
:1015B000E628F728D4CFCF93DF93EC01FC013396D4
:1015C0006591749180918C0590E00E945F0A882358
:1015D00059F0FE0135966591749180918D0590E0EA
:1015E000DF91CF910C943F0A80E0DF91CF91089575
:1015F000E3E7F5E08AE190E09283818385E090E083
:101600009483838361E080810C94C40380918C0671
:101610008F3F11F42D98089560E00C940C038823FB
:1016200049F080918C068F3F11F42D9A089561E066
:101630000C940C030C94060B8F929F92AF92BF9266
:10164000CF92DF92EF92FF92CF936C010E94000441
:101650004B015C01F12CE12C88E0C80ED11CE11C8F
:10166000F11CC80CD91CEA1CFB1CC0E0F89461E01A
:10167000809173050E940C03809176059091770507
:101680000E94290260E0809173050E940C03789407
:10169000C11103C081E00E940F0B809174059091ED
:1016A0007505880E991EA11CB11C0E9400046C15C2
:1016B0007D058E059F0558F0CF91FF90EF90DF904C
:1016C000CF90BF90AF909F908F900C94060BC1E08D
:1016D000681579058A059B0540F3C8CF0E94F80A72
:1016E00080E093E20E941C0B60EC78E080E090E0E8
:1016F0000E94180A80E392E00C941C0B0E94F80AE6
:1017000080EE90E20E941C0B68E378E080E090E0BD
:101710000E94180A8EE092E00C941C0B0F931F930A
:10172000CF938C01C62F0E942D096C2F6460C801D5
:101730000E942D096C2F6B7FC8010E942D0983EC3C
:1017400090E00197F1F7CF911F910F9108950F93BA
:101750001F93CF93DF938C01D62FC42F607F642B10
:101760000E948E0B80E1D89FB00111246C2BC80120
:10177000DF91CF911F910F910C948E0BCF93DF933C
:10178000CDB7DEB728970FB6F894DEBF0FBECDBF3A
:1017900098E0E9E5F1E0DE01119601900D929A954D
:1017A000E1F79091B106961708F46FEF262F30E01D
:1017B000220F331F41E050E04C0F5D1F240F351FF7
:1017C000F9016081680F606840E089EA96E0289638
:1017D0000FB6F894DEBF0FBECDBFDF91CF910C9452
:1017E000A70B40E061E089EA96E00E94A70B8BE33B
:1017F0009FE10197F1F78091B206882321F060E024
:1018000080E00C94BE0B089541E00E94A70B81E09C
:1018100090E00895FB0101900020E9F73197AF01B6
:10182000461B570BDC01ED91FC910280F381E02D0A
:1018300009948F929F92AF92BF920F931F93CF9371
:10184000DF93CDB7DEB7A1970FB6F894DEBF0FBE1A
:10185000CDBF19A2423008F44AE08E010F5D1F4F40
:10186000842E912CB12CA12CA50194010E946E29EB
:10187000E62FB901CA01EA3004F5E05DD801EE9324
:101880008D01232B242B252B79F790E080E01097F6
:1018900029F0BD0186ED94E00E940A0CA1960FB6D6
:1018A000F894DEBF0FBECDBFDF91CF911F910F9196
:1018B000BF90AF909F908F900895E95CDFCFCF925B
:1018C000DF92EF92FF92CF93DF936C01990FEE08B6
:1018D000FF08F7FE21C06DE286ED94E00E94A508A6
:1018E000EC0166277727CB016C197D098E099F09CA
:1018F0004AE00E94190CC80FD91F61E971E086ED1A
:1019000094E00E940A0C8C0F9D1FDF91CF91FF90F5
:10191000EF90DF90CF9008954AE0C701B6010E9492
:10192000190CEC01EACFCF93DF93BC0186ED94E074
:101930000E940A0CEC0161E971E086ED94E00E94DE
:101940000A0C8C0F9D1FDF91CF9108950C940A0C07
:101950000F931F93CF93DF938C01EB01BC0186EBB8
:1019600096E00E94322B892B41F4BE0187EC96E071
:101970000E94322B892B09F450C0B80186EB96E007
:101980000E943B2BBE0187EC96E00E943B2B60E05F
:1019900080E00E94BE0B64E971E089EA96E00E9453
:1019A000A60C61E080E00E94BE0B64E971E089EA68
:1019B00096E00E94A60CF80101900020E9F731970B
:1019C000E01BF10B80E190E08E1B910997FD0196E1
:1019D0009595879560E00E94BE0BB80189EA96E074
:1019E0000E94A60CFE0101900020E9F73197EC1B44
:1019F000FD0B80E190E08E1B910997FD0196959576
:101A0000879561E00E94BE0BBE0189EA96E0DF91F6
:101A1000CF911F910F910C94A60CDF91CF911F9144
:101A20000F9108950E9482046093B2047093B304EE
:101A30008093B4049093B50481E08093B6040E942F
:101A400068030E945C030E94510365EA71E083EB26
:101A500091E00E94A80C64E670E086E091E00E94AC
:101A6000B80560E570E080E090E00E94250466E93A
:101A700070E088E891E00C94B805FF920F931F93F3
:101A8000CF93DF93CDB7DEB764970FB6F894DEBF80
:101A90000FBECDBF162FF42E44E150E0BC01CE01A5
:101AA00001960E94FA250889802F80714885598502
:101AB00004FD02C04A855B85001F0027001F21E04E
:101AC000811101C020E06F2D812F0E947F0A649652
:101AD0000FB6F894DEBF0FBECDBFDF91CF911F913F
:101AE0000F91FF90089585ED8093BC0080913E0496
:101AF00090913F04A0914004B09141040796A11D2C
:101B0000B11D23E0B695A795979587952A95D1F7AE
:101B10002091BC0024FD03C010928B0408954091D5
:101B20003E0450913F046091400470914104452B64
:101B3000462B472B69F30097A105B10541F02AE236
:101B40002A95F1F700C00197A109B109E1CF809171
:101B50003D040C94A3031F920F920FB60F92112411
:101B60002F933F934F935F936F937F938F939F93A5
:101B7000AF93BF93EF93FF938091B900887F803636
:101B800009F44AC0F0F5883209F4A7C018F580318D
:101B900009F49BC0B8F4882309F4F9C0883009F42B
:101BA00094C0FF91EF91BF91AF919F918F917F91E1
:101BB0006F915F914F913F912F910F900FBE0F90BA
:101BC0001F901895883109F488C0803251F78093AE
:101BD0008A0414C0803409F49DC040F48033B9F302
:101BE0008833F9F680938A0485ECB0C0803509F417
:101BF00085C0883509F496C0883499F60E94730D23
:101C0000D0CF883909F48CC038F5883729F050F4E2
:101C1000883611F0803729F683E080938B04109288
:101C2000890457C0883809F47BC0803919F080389E
:101C300009F0B7CF80918904803208F071C0E0913B
:101C4000890481E08E0F809389048091BB00F0E0CD
:101C5000E759FB4F80833DC0803B39F0E0F4803A88
:101C600009F479C0883A09F09CCF84E080938B0412
:101C70001092660410926504E0916304F09164048C
:101C800009958091650481110FC081E080936504FE
:101C90001092430409C0803C09F4A6CF883C09F4A3
:101CA000A3CF883B09F07DCFE091660481E08E0FE1
:101CB00080936604F0E0ED5BFB4F80818093BB0076
:101CC000909166048091650429C08091B00480934E
:101CD000BB0085EC8093BC0064CF9091AF048091F1
:101CE000AE04981758F5E091AF0481E08E0F809311
:101CF000AF04F0E0E257FB4F8081E9CFE091AF0401
:101D000081E08E0F8093AF048091BB00F0E0E2573A
:101D1000FB4F80839091AF048091AE049817C8F276
:101D200085E8D8CFE091AF0481E08E0F8093AF04B7
:101D30008091BB00F0E0E257FB4F808380918D04DF
:101D400081115CCF81E080938C0484EA8093BC0095
:101D500010928B0426CF85EC8093BC0010928B04EC
:101D600080918904803230F4E0918904F0E0E759F1
:101D7000FB4F10826091890470E0E0916704F0915C
:101D8000680489E694E00995109289040ACF1092BC
:101D90008A0434CF1F920F920FB60F9211242F9303
:101DA0003F938F939F93AF93BF938091F003909154
:101DB000F103A091F203B091F3033091EF0323E01C
:101DC000230F2D3758F50196A11DB11D2093EF0368
:101DD0008093F0039093F103A093F203B093F30385
:101DE0008091F4039091F503A091F603B091F7036D
:101DF0000196A11DB11D8093F4039093F503A09368
:101E0000F603B093F703BF91AF919F918F913F91EC
:101E10002F910F900FBE0F901F90189526E8230F5B
:101E20000296A11DB11DD2CF1F920F920FB60F9235
:101E300011242F933F934F935F936F937F938F93CF
:101E40009F93AF93BF93EF93FF938091BE049091C4
:101E5000BF04A091C004B091C104892B8A2B8B2BA5
:101E6000D1F19091B904E091BA04F091BB04808162
:101E7000892780838091BE049091BF04A091C00403
:101E8000B091C104181619061A061B069CF480911D
:101E9000BE049091BF04A091C004B091C104019709
:101EA000A109B1098093BE049093BF04A093C0041C
:101EB000B093C104FF91EF91BF91AF919F918F912A
:101EC0007F916F915F914F913F912F910F900FBE36
:101ED0000F901F901895809158010E948C05EACFB1
:101EE0001F920F920FB60F9211242F933F934F938F
:101EF0005F936F937F938F939F93AF93BF93EF9372
:101F0000FF9386ED94E00E948308FF91EF91BF91CB
:101F1000AF919F918F917F916F915F914F913F9181
:101F20002F910F900FBE0F901F9018951F920F9238
:101F30000FB60F9211242F938F939F93EF93FF93DC
:101F4000E091E604F091E7048081E091EC04F091E7
:101F5000ED0482FD1BC090818091EF048F5F8F7331
:101F60002091F004821741F0E091EF04F0E0EA5292
:101F7000FB4F958F8093EF04FF91EF919F918F918D
:101F80002F910F900FBE0F901F9018958081F4CF66
:101F90001F920F920FB60F9211242F933F934F93DE
:101FA0005F936F937F938F939F93AF93BF93CF93E1
:101FB000EF93FF93E0917A05F0917B05C0818091CA
:101FC0007C05C82380917D0590917E0520917D053B
:101FD00030917E052F3F3F4F29F0019690937E056B
:101FE00080937D0520917805211115C0C1114BC04A
:101FF000813A910558F01092870590938A05809355
:10200000890581E0809388058093780510927E058C
:1020100010927D0538C0213099F4CC23A1F1E091D4
:1020200088052E0F20938805F0E0E858FA4F8F3F7F
:10203000910519F010F08FEF90E0838B82E0E4CFF0
:10204000223009F047C0E0918805813A910510F4EB
:10205000E73CA0F1E83C18F081E08093870580918F
:10206000890590918A059093800680937F06E0937E
:102070007E0683E080937805E0917F05F0918005EE
:10208000309709F0099580918D06882329F081E029
:10209000C11180E00E940F0BFF91EF91CF91BF9192
:1020A000AF919F918F917F916F915F914F913F91F0
:1020B0002F910F900FBE0F901F901895C111E3CF75
:1020C00091E09E0F90938805F0E0E858FA4F838BDB
:1020D00081E09ACF2330B9F6C111D5CF97CFCF92F7
:1020E000DF92EF92FF920F931F93E82FF92F05C015
:1020F000015011092109310961F19081962394174A
:10210000B9F305C0015011092109310911F190817C
:1021100096239413F7CFC12CD12CE12CF12C0AC0BB
:102120008FEFC81AD80AE80AF80A0C151D052E0503
:102130003F0579F080818623841791F36C2D7D2DE6
:102140008E2D9F2D1F910F91FF90EF90DF90CF90DC
:10215000089560E070E080E090E01F910F91FF90A3
:10216000EF90DF90CF900895DF92EF92FF920F9360
:102170001F93CF93DF93EC01D62E8A017901F0E013
:1021800090E080E030E0E0E0DE01AE0FB11D2C9188
:10219000FF5F222339F0320F2E9F800D911D1124F5
:1021A0001C92F0E03323B9F0DE1611F0F23098F013
:1021B000232F2695820F911D632F70E00E94002A25
:1021C000DE01A60FB11D3C93D8013C9131110FC027
:1021D0006C9390E080E0EF5FDE16B0F681E0DF9177
:1021E000CF911F910F91FF90EF90DF900895D7014D
:1021F0003C91332369F380E0F2CFEAECF4E0138200
:10220000128288EE93E0A0E0B0E084839583A683F9
:10221000B78325E631E031832083E6EDF4E01382D5
:10222000128284839583A683B78387E791E09183A5
:10223000808385EC90E09587848784EC90E0978795
:10224000868780EC90E0918B808B81EC90E0938B83
:10225000828B82EC90E0958B848B86EC90E0978B60
:10226000868B118E128E138E148E8FEF80938C06B8
:10227000E8E7F5E0118281E0848389E290E09383CE
:102280008283509810927305AEE8B6E087E0159609
:102290008C9315978BE016968C931697EDEDF2E0E4
:1022A000E4911796EC931797E9ECF2E0E491189615
:1022B000EC93189740E85EE360E070E01D964D9364
:1022C0005D936D937C93509753961D921D921D9232
:1022D0001C92569757961D921D921D921C925A97CA
:1022E000E9EAF6E01382128289E891E09183808323
:1022F000118687E2848380E1828782E08387148667
:102300000895CF93DF93CDB7DEB7C955D1090FB686
:10231000F894DEBF0FBECDBF789484B5826084BDD3
:1023200084B5816084BD85B5826085BD85B58160D9
:1023300085BD80916E00816080936E001092810057
:102340008091810082608093810080918100816012
:1023500080938100809180008160809380008091D3
:10236000B10084608093B1008091B000816080935F
:10237000B00080917A00846080937A0080917A0026
:10238000826080937A0080917A00816080937A00E5
:1023900080917A00806880937A001092C100E09169
:1023A000E604F091E70482E08083E091E204F0919A
:1023B000E3041082E091E404F091E5048FEC808363
:1023C0001092EE04E091EA04F091EB0486E0808341
:1023D000E091E804F091E904808180618083E091DC
:1023E000E804F091E904808188608083E091E8044A
:1023F000F091E904808180688083E091E804F091A5
:10240000E90480818F7D808385EC91E00E94930CAC
:102410001092570110923A041092390410923C0421
:1024200010923B040E9485038BE592E09093640434
:10243000809363048CE592E0909368048093670432
:102440001092AE068091B406823018F098E0909316
:10245000AE068093B10662E370E080E090E00E94F7
:1024600025046091B50689EA96E00E942D0968EE80
:1024700073E080E090E00E94250460E389EA96E042
:102480000E948E0B0BE416E4C8010197F1F760E39C
:1024900089EA96E00E948E0BC8010197F1F760E38C
:1024A00089EA96E00E948E0B83E592E00197F1F7AE
:1024B00060E289EA96E00E948E0B6091AE0660624F
:1024C00040E089EA96E00E94A70B84E08093AF0683
:1024D00040E06CE089EA96E00E94A70B0E94F10BB5
:1024E00012E01093B00640E066E089EA96E00E94B0
:1024F000A70B40E062E089EA96E00E94A70B8BE31D
:102500009FE10197F1F708E00093B50660E089EAE2
:1025100096E00E942D090E94F10B1092B6061092CF
:10252000C70661E082E00E94C40361E083E00E948C
:10253000C40360E082E00E940C0360E083E00E943C
:102540000C0361E086E00E94C40386E00E948C05D3
:1025500061E084E00E94C40361E085E00E94C4035E
:1025600061E084E00E940C0361E085E00E940C03BE
:102570001092B6040093730589E080937905109357
:102580007C0583E290E090937B0580937A05219807
:1025900081E080938D068FEF80938C06259A1093AF
:1025A000B0001093B10084E68093B3008093B40030
:1025B0001092B20080917805833011F41092780562
:1025C00084E08093700061E08AE00E94C40360E0D0
:1025D0008BE00E94C40360E08AE00E940C0310922A
:1025E0001F011092200110922101109222011092DD
:1025F0002B0160E08EE00E94C403109298031092B9
:1026000097031092990310929A0310929B031092D1
:102610009C0310929D0310929E0310929F031092B0
:10262000A0031092A10360E08FE00E94C403109207
:10263000090110920A010E94820460930B017093B9
:102640000C0180930D0190930E0110920F011092D6
:1026500010011092110110921201E0915601E093C5
:10266000EE03E150E830B0F4F0E0E75CFC4E0C948F
:10267000142A77138C1341139313B213C313CD137E
:10268000DD138091B104811105C081E08093B10414
:102690000E94120D81E0809357018E010C5B1F4F49
:1026A00067961FAF0EAF67979E01245B3F4F6996F9
:1026B0003FAF2EAF6997AE014F5F5F4F7A018091B8
:1026C0005701813009F091C0E091EE03E150E8300C
:1026D00008F08BC0F0E0E159FC4E0C94142AD014A1
:1026E000CC17E713B815E417F520D923BE240E94B0
:1026F0003A0364ED71E082EE91E00E94A80C0E9422
:1027000082046093E8037093E9038093EA03909353
:10271000EB031092EC03BECF60EF71E08EEF91E01F
:102720000E94A80CB7CF62E0809193060E94C40378
:102730000E948204605D7740810991096093970649
:10274000709398068093990690939A0687E38093F6
:10275000A00660E082E00E940C0360E083E00E943B
:102760000C0398CF10924101109242011092430144
:1027700010924401109245011092460165E072E00A
:1027800082E192E0CDCF65E072E080E292E00E94CB
:10279000A80C81E08093E3037DCF63E673E08BE2D6
:1027A00092E00E94A80C68EB7BE080E090E00E9441
:1027B000250481E08093CE036DCF6AE372E080E46C
:1027C00092E00E94A80C81E08093C80363CF8091BF
:1027D000B104882351F00E9482042091B604223073
:1027E00009F466C078F4213031F180E090E0892B63
:1027F00009F465CF0E946F08882309F45CCF0E941A
:10280000000059CF233009F48FC0243071F70091B4
:10281000B2041091B3042091B4043091B504601B4C
:10282000710B820B930B603D774081059105E8F2B7
:102830000E94120DDACF0091B2041091B3042091DE
:10284000B4043091B504601B710B820B930B683B91
:102850007B408105910548F20E9482046093B20496
:102860007093B3048093B4049093B50482E0809392
:10287000B6040E9468030E943A030E9446036EE475
:1028800072E083EB91E00E94A80C64E670E088E8B7
:1028900091E00E94B80560E570E080E090E00E9461
:1028A000250466E970E086E091E00E94B8059DCFBE
:1028B0000091B2041091B3042091B4043091B50496
:1028C000601B710B820B930B603D77408105910576
:1028D00008F48BCF0E9482046093B2047093B30417
:1028E0008093B4049093B50483E08093B6040E946F
:1028F00068030E945C030E94510367E572E083EB6A
:1029000091E00E94A80C64E670E08AE491E00E94E5
:10291000B80560E570E080E090E00E94250466E97B
:1029200070E088EB91E0C1CF0091B2041091B30444
:102930002091B4043091B504601B710B820B930B92
:10294000683B7B408105910508F44FCF0E948204CB
:102950006093B2047093B3048093B4049093B5046D
:1029600084E08093B6040E9468030E943A030E94A8
:10297000460367E672E083EB91E00E94A80C64E6F0
:1029800070E088EB91E00E94B80560E570E080E0BF
:1029900090E00E94250466E970E08AE491E085CF2A
:1029A0000E943A030E9482040091E8031091E90317
:1029B0002091EA033091EB03601B710B820B930BA8
:1029C0006838734181059105B8F00E9482046093D4
:1029D000E8037093E9038093EA039093EB038091FB
:1029E000EC03882309F4BAC064ED71E082EE91E053
:1029F0000E94A80C1092EC038091ED03882309F447
:102A0000F4CE64EB70E08BE092E00E94B8056EE1DA
:102A100070E080E090E00E94250464EB70E08BE4BD
:102A200092E00E94B8056EE170E080E090E00E94C4
:102A3000250464EB70E083E992E00E94B8056EE142
:102A400070E080E090E00E9425046AEF70E080E191
:102A500093E00E94B80562E370E080E090E00E949D
:102A6000250464EB70E083E992E00E94B8056EE112
:102A700070E080E090E00E9425046CED70E080E161
:102A800093E00E94B8056EE170E080E090E00E9463
:102A900025046EE571E087E194E00E94B80560E5E9
:102AA00070E080E090E00E94250464EB70E08CED23
:102AB00093E00E94B8056EE170E080E090E00E9433
:102AC000250464EB70E080E793E00E94B8056EE1B6
:102AD00070E080E090E00E9425046CED70E080E101
:102AE00093E00E94B80568E270E080E090E00E9408
:102AF000250464EB70E083E992E00E94B8056EE182
:102B000070E080E090E00E94250464EB70E08BE4CC
:102B100092E00E94B8056EE170E080E090E00E94D3
:102B200025046AEF70E08BE092E00E94B80562E352
:102B300070E080E090E00E9425046CED70E088E891
:102B400091E00E94B8056EE170E080E090E00E94A4
:102B5000250462EC71E08BE092E0A7CE6CE672E0B7
:102B600089E792E00E94A80C81E08093EC0344CFB7
:102B70000E948E04882349F0809194068B3028F0BF
:102B80008D3050F085518230D0F1412C512C40ECE9
:102B9000642E4FE7742E1EC060918F0670E090E0A7
:102BA00080E00E9441282DEC3CEC4CEC5DE30E945F
:102BB000A0284B015C0160918E0670E090E080E0FF
:102BC0000E9441289B01AC01C501B4010E941B2A4F
:102BD0002B013C010E948E04882311F40C94C32520
:102BE000809194068C3009F41EC1D8F48B3091F199
:102BF000812C912C20ECA22E2FE7B22E55C0609193
:102C00008E0670918F0676276727762790E080E002
:102C10000E943F282DEC3CEC4CEC5DE30E94A02888
:102C2000D7CF8551823020F710919006612F70E048
:102C3000762F662766277F7780919106682B90E034
:102C400080E00E943F282DEC3CEC4CEC5DE30E94C0
:102C5000A02805C16091900670E090E080E00E949D
:102C60003F284B015C011091910617FF0AC0AC018F
:102C70009B0160E070E080E89FEB0E941A2A4B0104
:102C80005C011F70612F70E090E080E00E9441289D
:102C90002DEC3CEC4CEC5DE30E94A028A5019401D6
:102CA0000E941B2A4B015C01A3019201C301B201E6
:102CB0000E942D2B882311F40C94D225A501940198
:102CC000C501B4010E942D2B811108C08092A1067C
:102CD0009092A206A092A306B092A4068091C0038F
:102CE00081110DC00E9482046093BC037093BD03E8
:102CF0008093BE039093BF0381E08093C0038091D3
:102D0000B40381110DC00E9482046093B0037093DC
:102D1000B1038093B2039093B30381E08093B40333
:102D20008090A1069090A206A090A306B090A40661
:102D30004090A5065090A6066090A7067090A80641
:102D40008E01045B1F4F21E044E0C501B4010E94E5
:102D5000DC250850110921E044E0C301B2010E94C2
:102D6000DC2520E030E040EE51E4C501B4010E94D2
:102D70003A2887FF8EC00E945C030E945103109284
:102D8000AF030E9482041091AE038090B003909034
:102D9000B103A090B203B090B303681979098A090E
:102DA0009B096838734181059105A0F00E94820457
:102DB0006093B0037093B1038093B2039093B30315
:102DC00081E018271093AE0364E170E081E290E0A7
:102DD0000E94B8058091AE03882309F449C064E8D5
:102DE00072E0CE01C3960E943B2B67961FAD67979A
:102DF0001F9366962FAD66972F938DE892E09F9371
:102E00008F931F9281E18F93FF92EF920E94422B4A
:102E10000FB6F894DEBF0FBECDBFB701CE01C3968B
:102E20000E94A80CE2CC10919006612F70E090E017
:102E300080E00E943F284B015C01609191066F7019
:102E400070E090E080E00E9441282DEC3CEC4CECDE
:102E50005DE30E94A028A50194010E941B2A4B015A
:102E60005C0117FF21CFB7FAB094B7F8B0941CCF2C
:102E700063E972E0CE01C3960E943B2B69965FAD79
:102E800069975F9368966FAD68976F938FE992E04B
:102E9000B6CF0E943A030E9446038091AF0381118E
:102EA00013C081E08093AF030E9482046093BC034F
:102EB0007093BD038093BE039093BF0360E084E0F2
:102EC0000E940C030E94F3070E9482040091BC033D
:102ED0001091BD032091BE033091BF03DC01CB01F3
:102EE000801B910BA20BB30B8838E3E19E07A10571
:102EF000B10528F465EA71E084EA92E091CF80316F
:102F0000F7E29F07A105B10520F563E972E0CE0164
:102F1000C3960E943B2B69960FAD69970F936896F5
:102F20001FAD68971F938FE992E09F938F931F9235
:102F300081E18F93FF92EF920E94422BB701CE0165
:102F4000C3960E94A80C0FB6F894DEBF0FBECDBF8B
:102F50004CCC88399A43A105B10588F464E872E045
:102F6000CE01C3960E943B2B67964FAD67974F9358
:102F700066965FAD66975F938DE892E0D6CF0E942C
:102F800082046093BC037093BD038093BE0390934F
:102F9000BF030E94F30729CC61E084E00E940C0388
:102FA0000E9446030E94510386E00E948C056EEA4F
:102FB00072E08EEF91E00E94A80C68EE73E080E072
:102FC00090E00E942504F9CF80917805833009F0C4
:102FD00014C280918705882309F463C080E480933C
:102FE0007D061092540610925306109258061092C5
:102FF0005706109256061092550610925B061092D4
:103000005C0610925D0610925E0610927C0610928D
:103010007B0680917D0686FDBEC110917E06812FC4
:103020008F7B843009F0BFC080918C0560E073E233
:1030300090E00E945F0A882309F442C180918D05C7
:1030400090E0143009F048C060EC78E00E943F0A3C
:10305000882309F435C180918E0560E372E090E029
:103060000E945F0A882309F42BC181E080937D06CA
:10307000809183069091840690935606809355061E
:103080008091850690918606909358068093570606
:103090008091810690918206909354068093530606
:1030A0007AC110927D0680915306909154069093B8
:1030B00082068093810680915706909158069093DE
:1030C00086068093850680915506909156069093CA
:1030D00084068093830685CF60E871E10E943F0AF1
:1030E000882309F4EDC043E060E28BE792E00E94A0
:1030F0003D0D80915B0690915C0640915D0650917C
:103100005E06242F30E030935806209357069C012A
:103110002E3EA7E83A0721F583E090E0909354060D
:1031200080935306852F90E0909356068093550622
:1031300080E290E090937C0680937B068AE795E09E
:103140000E94A00180917D0680FF25C128E030E02B
:103150003093540620935306806280937D061BC1F2
:103160009095891310C090E0909356068093550671
:10317000852F809548130CC087E090E0909354060B
:1031800080935306D5CF3093560620935506F0CF43
:1031900089E090E09093540680935306409357063D
:1031A00050935806C5CF143609F08AC087E692E0DE
:1031B0000E94DB0A882309F483C043E060E187E6CC
:1031C00092E00E943D0DB0905B060B2D10915C06C5
:1031D000BAE0CB2ED12C0230B0E21B07F9F0ADE003
:1031E000CA2ED12C0A3AEAE51E07C1F0FCE0CF2E28
:1031F000D12C0435F2E31F0789F0EEE0CE2ED12C5E
:10320000033021E0120751F08FE0C82ED12C033299
:103210003BEC130719F07BE0C72ED12CB1268B2D88
:1032200082958F70B82643E260E287E692E00E94C2
:103230003D0D80915B0690915C06A0915D06B0917A
:103240005E069C0164E0369527956A95E1F7309318
:103250005606209355062A2F30E0309358062093C7
:103260005706282F2A2729273B2D3F70482F4F70BC
:10327000341719F034E030937D064BE0C416D104C6
:1032800049F430917D06306130937D0610935A06E3
:10329000009359062B1729F080917D068460809356
:1032A0007D0680E390E090937C0680937B06D0922D
:1032B0005406C09253068AE397E00E94A0016BC0B7
:1032C00080917E06803209F0AAC080918C058A30F8
:1032D00008F0A5C041E06FE083E592E00E943D0D5B
:1032E00080915B0690915C06A0915D06B0915E06B0
:1032F0009C012F713327309356062093550655E0D5
:10330000B695A795979587955A95D1F7392F33702C
:10331000AC015527509358064093570640917F06BD
:10332000509180064536544008F076C020917D06C5
:10333000226020937D0620918B062F5F20938B06C1
:1033400020FF19C0213019F021E020937D06309133
:10335000850640918606282F2095231729F0209175
:103360007D06246020937D063093570640935806CF
:10337000392F3095337086E190E0311102C084E03E
:1033800090E090935406809353068FE090E09093E2
:103390007C0680937B0680915B0690915C06A091F1
:1033A0005D06B0915E068093A2039093A303A09361
:1033B000A403B093A503809155069091560690936F
:1033C000A7038093A6038091570690915806909387
:1033D000A9038093A803809153068093AA03809148
:1033E0007B068093AB0380917D068093AC03809134
:1033F0007805833011F4109278058091AA03873004
:1034000041F48091A6039091A7038034910509F4BB
:1034100081C610925301E9C910928B06ACCF83EBA1
:1034200091E00E94DB0A90917E06882309F445C052
:103430009A3129F09A3219F0903209F03EC0892F62
:1034400090E0BC016150710977FDBC0175956795ED
:1034500043E083EB91E00E943D0D80915B069091EB
:103460005C06A0915D06B0915E069C012F77332724
:10347000309358062093570647E0B695A795979541
:1034800087954A95D1F790935606809355062091DB
:103490007E0630E0C901019797FDC9019595879592
:1034A00090937C0680937B0687E190E0909354068E
:1034B0008093530688E292E000CF81E080938105FB
:1034C00029E733E030938605209385051092840523
:1034D0009E509B3108F0C0C080918C058D3208F061
:1034E000BBC00E94AD01813009F0B6C000E0812C64
:1034F000912C540110E09091810580917E069817DF
:10350000C0F50E94AD01D82E0E94AD01D1100AC0B5
:10351000813091F4880C991CAA1CBB1C689480F81B
:103520001F5FE9CF91E0D91207C0811105C0880C57
:10353000991CAA1CBB1CF4CF173009F08DC08091D8
:103540008105E82FF0E0E858FA4F9389963340F36D
:10355000909184059E5F909384052091820530911F
:1035600083059217130618F08F5F8093810501E0A1
:10357000D7CF80925B0690925C06A0925D06B092D7
:103580005E069401A6E036952795AA95E1F7812F6E
:1035900090E00023D1F1019790937C0680937B0605
:1035A000C4018F73992790935A06809359062F73FD
:1035B00033273093580620935706D501C401FCE009
:1035C000B695A79597958795FA95D1F78F71992715
:1035D0009093560680935506A2FC06C0205C3F4F90
:1035E000309358062093570680E980937D06A1FE0C
:1035F00003C088E980937D068DE190E090935406A6
:10360000809353068AED98E058CE90937C06809381
:103610007B06882D8F7390E0909358068093570611
:103620002F71332730935606209355069401222795
:103630003071232B31F4805C9F4F90935806809318
:10364000570680E880937D0693FE03C088E8809348
:103650007D0680E190E0D2CF80917E068A518F3244
:1036600008F0A5C080918C0568E67AE090E00E94A1
:103670005F0A882309F49BC080918D0568E773E099
:1036800090E00E943F0A882309F491C083E0809370
:1036900081058CEB91E090938605809385051092CF
:1036A00084050E94AD01813009F081C00E94AD0106
:1036B00081117DC0812C912C540110E090918105E5
:1036C00080917E06981730F50E94AD01082F0E9468
:1036D000AD01133049F408136AC00E94AD01D82E21
:1036E0000E94AD01D81263C0013051F481115FC056
:1036F000880C991CAA1CBB1C689480F81F5FDECF45
:10370000011155C0813009F052C0880C991CAA1CC7
:10371000BB1CF4CF812F90E090937C0680937B06B6
:1037200080925B0690925C06A0925D06B0925E0667
:10373000282D30E0892D90E0133200F540E84093C9
:103740007D06309358062093570690935606809333
:103750005506A0FE03C088E880937D06153128F049
:1037600080917D06806180937D0681E190E0909359
:1037700054068093530683E79AE09FCD40E9409337
:103780007D063093580620935706909356068093F3
:103790005506C5019F7390935A0680935906B7FE4C
:1037A00003C088E980937D0682E190E0E0CF10912C
:1037B0007E061C3319F0143009F099C080918C05F5
:1037C00060EE70E290E00E945F0A882309F48FC0E7
:1037D0001430A1F500918106109182060630110582
:1037E00009F0DBC080918D0568E378E090E00E94ED
:1037F0003F0A882309F4D1C080918E056EE072E003
:1038000090E00E945F0A882309F4C7C081E8809392
:103810007D0680918306909184069093560680934E
:103820005506809185069091860690935806809360
:1038300057061093540600935306ADCD80918D0525
:1038400060E770E190E00E943F0A882309F44FC0CE
:1038500043E06CE187EC91E00E943D0D80E88093AD
:103860007D0680915B0690915C06A0915D06B0910B
:103870005E068C019D0144E03695279517950795C6
:103880004A95D1F7A80110935806009357068C016A
:103890009D0164E136952795179507956A95D1F7AF
:1038A000109356060093550624E030E060E0742F34
:1038B0007F70670F04E0569547950A95E1F7215010
:1038C0003109A9F786278F709927AA27BB27892B4B
:1038D0008A2B8B2B19F084E880937D0686E090E09C
:1038E00090935406809353068CE190E050CD1232B1
:1038F00071F1143209F051C08BED91E00E94DB0AA6
:10390000882309F44AC043E060E18BED91E00E9416
:103910003D0D80915B0690915C06A0915D06B09193
:103920005E06492F5A2F6B2F7727509358064093E6
:1039300057069927909356068093550680E190E0AC
:1039400090937C0680937B0685E090E0A5CB009168
:103950008106109182060530110509F01CCD809179
:103960007F06909180068C3E9C4508F014CD809196
:103970008C056EE072E090E00E945F0A882309F4F3
:103980000ACD8091AC056EE072E090E00E945F0A83
:10399000882309F400CD81E03ACF80917E06982FEC
:1039A0009F7D943419F0863009F083C08FEE91E04A
:1039B0000E94DB0A882309F47CC0809181069091E3
:1039C000820684319105C1F420917E062630A1F44F
:1039D00021E220937D062091830630918406309366
:1039E0005606209355062091850630918606309321
:1039F00058062093570650CB43E060E28FEE91E0EB
:103A00000E943D0D90915B0680915C0610915D06D1
:103A100040915E069C0130935506209356062091F6
:103A20007E06042F0095243639F543E460E18FEEDD
:103A300091E00E943D0D80915B0690915C0610170D
:103A400031F09095981719F094E090937D06982F97
:103A5000812F909358068093570680E390E09093CF
:103A60007C0680937B0685E190E0909354068093DA
:103A700053068EEB9AE021CC101316C0212F30E0B4
:103A80003093580620935706891305C090E0909311
:103A900056068093550680E290E090937C068093D2
:103AA0007B0683E190E0E1CF1093570640935806E0
:103AB000EBCF80917E06843269F583E092E00E942C
:103AC000DB0A882339F143E060E183E092E00E9461
:103AD0003D0D10915B0680915C068095181719F0DA
:103AE00084E080937D068DE692E00E94A001812F04
:103AF00090E09093580680935706109256061092C5
:103B0000550680E190E090937C0680937B068EE1E1
:103B100090E0C2CA80917E068434C1F487E192E0CD
:103B20000E94DB0A882391F043E060E287E192E0A3
:103B30000E943D0D80E880937D0680E290E09093A6
:103B40007C0680937B068CE190E0A6CA80918C0570
:103B5000B2E38B9FC0011124835691098C399105E2
:103B600008F067C080918D0562E074E090E00E94EB
:103B70003F0A882309F45DC080917E06843209F0F3
:103B800058C000913B01802F8071409133015091CA
:103B9000340104FD04C04091350150913601001FED
:103BA0000027001F21E0811101C020E063E080E1D7
:103BB0000E947F0A80E880937D0640915B06909189
:103BC0005C06242F392F592F52955F709F70A4E007
:103BD00036952795AA95E1F72F704F708FE08527CE
:103BE00089278227481719F084E880937D06809101
:103BF0007D0660917F0670918006683F714118F4E0
:103C0000826080937D065093550610925606F0E12F
:103C10009F9FC0011124822B9093580680935706D2
:103C200080E190E090937C0680937B068AE190E0AF
:103C300033CA8BE292E00E94DB0A882371F1809103
:103C40007E06843251F543E060E18BE292E00E940F
:103C50003D0D8091AE0568E072E090E00E945F0A41
:103C60008823D9F080915B0690915C0698279F3F4E
:103C7000A1F490E0909358068093570680E190E07D
:103C800090937C0680937B0689E190E090935406A4
:103C90008093530688ED94E010CB80917E068037A8
:103CA00009F04FC041E068E08FE392E00E943D0DD3
:103CB00080915B0690915C06A0915D06B0915E06D6
:103CC000892B8A2B8B2BE9F541E16FE18FE392E0A1
:103CD0000E943D0D80905B0690905C06A0905D0672
:103CE000B0905E064FE461E18FE392E00E943D0DEB
:103CF00090915C0680915D0689279827892790938B
:103D000058068093570680925B0690925C06A092BC
:103D10005D06B0925E069092560680925506B0926D
:103D20005A06A09259068BE190E090935406809336
:103D3000530688E390E090937C0680937B0680E8AE
:103D40000CCA80917E068F7B843009F040C0809140
:103D50008C0560E073E290E00E945F0A8823B9F16D
:103D600080918D0560E871E190E00E943F0A882310
:103D700071F143E060E28BE792E00E943D0D80919B
:103D80005B0690915C0630915D0620915E069095F1
:103D900089131DC0922F90959317C9F04FE150E001
:103DA000509354064093530690E0909356068093A8
:103DB0005506C901909357068093580680E290E01B
:103DC00090937C0680937B068AE795E076CA809183
:103DD0007E06823108F449C192E3D7011D929A957B
:103DE000E9F743E060E08250990B242F30E0281778
:103DF000390794F428583A4FF9012389223308F0FF
:103E000034C1F701E20FF11D30813F5F308362174B
:103E100008F4622F4E5FE9CF65961FAE65972D9629
:103E20001FAE2D979E01245B3F4FAE014C5A5F4F52
:103E3000C7010E94B410882309F417C182E3D70197
:103E40001D928A95E9F740917E064250550B24E079
:103E500060E0822F90E08417950794F488589A4F79
:103E6000FC018389823308F000C1F701E80FF11DDE
:103E700090819F5F9083681708F4682F2E5FE9CFC9
:103E800025961FAE25971BAA9E012D5C3F4FAE01C4
:103E90004C5B5F4FC7010E94B410882309F4E5C052
:103EA00080917E0686951FEF180FCBA8CC2011F0CD
:103EB0001EEF180F212F30E030937C0620937B06F5
:103EC0001901F1E02F1A310837FE04C019010EE183
:103ED000200E311CF5E035942794FA95E1F76A96A7
:103EE0002FAE6A972D96AFAC2D97A11003C0CC20B2
:103EF00009F4BBC025966FAC259782E3689E30011C
:103F0000112465968FAC6597889E40011124A89E68
:103F100050011124C89E60011124E3E04E2E512C63
:103F2000812F113208F080E29BA9992309F47DC00A
:103F300022E030E0309354062093530600E020E066
:103F4000A601642D0E947F0A80915B0690915C0619
:103F5000A0915D06B0915E0654E0559EF0011124DB
:103F6000E559F94F80839183A283B38360E4460EC1
:103F7000105253946A96EFAD6A97E51588F6209132
:103F80007F0630918006203D3740E8F4F101EE0FC6
:103F9000FF1FEE0FFF1FE559F94F008111812281AC
:103FA000338140918706509188066091890670910F
:103FB0008A06041715072607370729F420917D067E
:103FC000216020937D068093870690938806A093B6
:103FD0008906B0938A0620918C0592E3299F90016F
:103FE00011243093600620935F0680918D05899F90
:103FF000C001112490936206809361069092680636
:104000008092670670926A0660926906A114B104F4
:1040100019F1C114D10499F4B0926406A092630618
:104020007092660660926506B6C941E050E0509312
:1040300054064093530600E021E0A50182CFD092C0
:104040006606C09265069092640680926306B092FE
:104050006806A09267069FC99092640680926306E4
:10406000D0926606C092650696C9E0917E06E6305B
:1040700008F491C911E025EC3DE94CE151E8F0E08C
:104080000AE0612F70E0CB0102968E179F077CF546
:1040900088589A4FDC0153968C9168587A4FDB010F
:1040A00053966C91809F6001112498E0699FD00124
:1040B0001124CA16DB06C8F0609FB0011124A8E0E5
:1040C0008A9FC0011124DD24D3946817790710F466
:1040D00062E0D62E63E971E080E091E00E945E2903
:1040E0009B01AC012D251F5FCCCFD12CF3CF2093AA
:1040F0005B0630935C0640935D0650935E0680E25B
:1041000090E090937C0680937B0610925406109268
:10411000530641C98091A8039091A90320915301AE
:10412000222349F0209154013091550182179307C1
:1041300011F40C94F51321E0209353019093550151
:10414000809354018330910591F198F48130910569
:1041500011F1029711F00C94F51366EB72E087EC05
:1041600092E00E94A80C0E945C030E9451030C94F0
:10417000F5138530910591F148F1069711F00C94F3
:10418000F51366EB72E08BEE92E00E94A80C0E94A1
:10419000B7070C94F51366EB72E08EEB92E00E9489
:1041A000A80C0E943A030E9446030C94F51366EB98
:1041B00072E080ED92E00E94A80C64E170E081E280
:1041C00090E00E94B8050E945103EDCF66EB72E0CB
:1041D00089ED92E00E94A80C0C94C91766EB72E07E
:1041E00082EE92E00E94A80CEECF8091E303882338
:1041F00011F40C94F51325E0C22ED12C212C312C76
:10420000210133E0A32EB12C41EE842E42E0942E06
:104210005DEC652E52E0752E60E08AE00E940C0392
:10422000C5010197F1F761E08AE00E940C038AE082
:1042300090E00E94290260E08AE00E940C03F401F1
:104240006491F3018491E82FF0E0EE0FFF1FE85432
:10425000FD4F8591949100E315E720E030E0462F73
:104260000E946F10611571058105910579F0DC01DF
:10427000CB010196A11DB11DBF700097A105B1052D
:1042800029F0280E391E4A1E5B1ED394CA94C11011
:10429000C3CFD11097C010921F011092200110922D
:1042A00021011092220110922B0184EF92E00E94D2
:1042B000930C60911F0170912001809121019091D8
:1042C00022018E010C5B1F4F21E045E00E94DC259E
:1042D00061E373E0CE01C3960E943B2B6796FFAD6E
:1042E0006797FF9366960FAD66970F938AE393E007
:1042F0009F938F931F9281E18F93FF92EF920E9481
:10430000422BB701CE01C3960E94A80C80901F01DA
:1043100090902001A0902101B09022010FB6F89456
:10432000DEBF0FBECDBF20E030E0A901C501B40162
:104330000E943A2818160CF43AC10E9451030E94B8
:10434000460380901F0190902001A0902101B09021
:10435000220120E030E0A901C501B4010E943A2801
:10436000181614F00C94F51320E030E040E751E407
:10437000C501B4010E943A2818160CF49FC10E948E
:1043800082040091E4031091E5032091E60330914B
:10439000E703601B710B820B930B6F307105810576
:1043A000910510F40C94F5130E9482046093E403C9
:1043B0007093E5038093E6039093E7030E94E1077F
:1043C0000C94F513C201B1010E943F284B015C011E
:1043D0006D2D70E090E080E00E9441289B01AC01CF
:1043E000C501B4010E94872A20E030E048E652E48B
:1043F0000E94872A4B015C0180921F01909220014C
:10440000A0922101B09222016091230170912401B8
:1044100090E080E00E943F289B01AC01C501B401FF
:104420000E94282B87FD11C0609125017091260103
:1044300090E080E00E943F289B01AC0111E0C501A3
:10444000B4010E943A2818160CF410E010932B01C6
:104450006CEF72E086ED94E00E94A60C6D2D70E08A
:1044600090E080E04AE00E94190C66E073E086ED7F
:1044700094E00E94A60C80901F0190902001A090D3
:104480002101B0902201A5019401C501B4010E944F
:104490002D2B64E173E081111AC024013501E894E9
:1044A00077F82FEF3FEF4FE75FE7C301B2010E94BC
:1044B0002D2B81111EC02FEF3FEF4FE75FE7C301A8
:1044C000B2010E943A281816A4F468E173E086ED60
:1044D00094E00E940A0C60E273E086ED94E00E9492
:1044E000A60C80912B01882309F45EC08EEB91E02D
:1044F000DECE2FEF3FEF4FE75FE4C501B4010E942E
:10450000282B18161CF46CE173E0E1CF2FEF3FEF7E
:104510004FE75FECC501B4010E943A2887FDF3CF55
:1045200020E030E0A901C501B4010E943A2887FFCC
:1045300009C06DE286ED94E00E94A508B7FAB09438
:10454000B7F8B0942DEC3CEC4CE45DE3C501B4014C
:104550000E941B2A2B013C010E94F92A4B015C019D
:104560000E943F289B01AC01C301B2010E941A2A9C
:104570002B013C014AE0C501B4010E94190C6EE216
:1045800086ED94E00E94A50820E030E040E251E48E
:10459000C301B2010E94A0280E94F92A90E080E0A5
:1045A0004AE00E94190C97CF82EC91E080CE20E087
:1045B00030E040E751E4C501B4010E943A281816E2
:1045C000B4F00E94460315E00E943A0369E170E0EE
:1045D00080E090E00E9425040E94510369E170E0B0
:1045E00080E090E00E942504115071F7AACE20E0EF
:1045F00030E040EF51E4C501B4010E943A2818169A
:10460000B4F00E94460313E00E943A0369E170E0AF
:1046100080E090E00E9425040E94510369E170E06F
:1046200080E090E00E942504115071F78ACE0E942C
:10463000510320E030E04AEF52E4C501B4010E948A
:10464000282B181644F440E050E060E87EE381E057
:104650000E94580476CE20E030E048EC52E4C501D8
:10466000B4010E94282B181634F44DEC5CEC6CE479
:104670007EE382E0EDCF20E030E046E952E4C50180
:10468000B4010E94282B181634F44AE959E969E16B
:104690007EE383E0DDCF20E030E040E752E4C50177
:1046A000B4010E94282B181634F44DEC5CEC6CEC31
:1046B0007DE384E0CDCF0E945C0343CE20E030E078
:1046C00040EF51E4C501B4010E943A281816B4F035
:1046D0000E9482040091E4031091E5032091E60317
:1046E0003091E703601B710B820B930B62337105F2
:1046F0008105910510F40C94F51356CE20E030E0BE
:104700004AEF52E4C501B4010E94282B00E911E0F0
:10471000181634F120E030E048EC52E4C501B40151
:104720000E94282B0CE211E01816D4F020E030E0B3
:1047300046E952E4C501B4010E94282B08EC10E0C0
:10474000181674F020E030E040E752E4C501B401EF
:104750000E94282B02E310E0181614F404E610E07F
:104760000E9482048090E4039090E503A090E60309
:10477000B090E703AB01BC01481959096A097B09EC
:1047800030E020E0401751076207730710F40C94E3
:10479000F5130E9482046093E4037093E503809311
:1047A000E6039093E70364E170E081E290E00C940B
:1047B0005514D090CE03DD2011F40C94F5130E9413
:1047C00082044B015C018091E2038823E9F080912F
:1047D000DE039091DF03A091E003B091E103950126
:1047E0008401081B190B2A0B3B0BD901C801803D22
:1047F0009740A105B10540F060E473E08DE493E0DB
:104800000E94A80C1092E2030E9482042B013C013A
:1048100080919A0390919B03A0919C03B0919D037A
:10482000A3019201281B390B4A0B5B0BDA01C9016A
:104830004497A105B10508F49FC040929A03509295
:104840009B0360929C0370929D0360E290E080E085
:104850004FEF53E070E4EBE1F3E070937C002091C4
:104860007A00206420937A0020917A0026FDFCCF04
:104870002091780030917900241735070CF4A901B4
:10488000821793070CF4C901DF011197F1F761500A
:1048900021F7841B950B9093980380939703409185
:1048A0009E0350919F036091A0037091A103930117
:1048B0008201041B150B260B370BB901A8018C3D97
:1048C00091050CF457C04C3251406105710508F454
:1048D00051C081E08093990340929E0350929F03C0
:1048E0006092A0037092A103009197031091980326
:1048F0008091CF039091D003A091D103B091D203C6
:10490000A5019401281B390B4A0B5B0BDA01C90185
:104910000A97A105B10578F08092CF039092D00359
:10492000A092D103B092D20385EA91E00E94F208EE
:10493000C8010E945F0CDD2011F40C94F5138DE882
:1049400091E00E94F208C8010E945F0C6DE573E0DF
:104950008AE693E00E94A80C8092DE039092DF0327
:10496000A092E003B092E10381E08093E2030E9411
:10497000B707F9CB10929903D12CB6CF8091C80319
:10498000882311F40C94F5130E9482044B015C01FE
:104990000E9482042B013C011092090180911B01AD
:1049A00090911C01A0911D01B0911E01B301A201C3
:1049B000481B590B6A0B7B0B8091170190911801D2
:1049C000A0911901B0911A01481759076A077B078E
:1049D00008F4AAC040921B0150921C0160921D0174
:1049E00070921E01E8EAF2E08491E5EEF2E00491B3
:1049F000E1EDF2E01491112379F081110E94E302BC
:104A0000E12FF0E0EE0FFF1FE854FD4FA591B491A8
:104A10008C91082381E009F480E0817040910B01C2
:104A200050910C0160910D0170910E019301820172
:104A3000041B150B260B370B40910001509101010F
:104A400060910201709103010417150726073707CB
:104A500050F580930A0180910901882309F464C00C
:104A600083E791E00E94F20861E971E086ED94E04D
:104A70000E940A0C6DE573E089E793E00E94A80CA0
:104A80000E94B7070E943A030E94460381E0809388
:104A9000C9038092CA039092CB03A092CC03B09238
:104AA000CD030C94F51340910F01509110016091CA
:104AB00011017091120193018201041B150B260B49
:104AC000370B4091040150910501609106017091EE
:104AD0000701E0910A0191E0E91709F4BACF8823B0
:104AE00009F4B7CF041715072607370708F4B1CF25
:104AF00090930A019093090140920F015092100186
:104B0000609211017092120180910801882309F4CA
:104B1000A7CF82E691E00E94F20861E971E086ED9C
:104B200094E00E940A0C97CF8091C903882311F466
:104B30000C94F5138091CA039091CB03A091CC0300
:104B4000B091CD03881A990AAA0ABB0A8091130171
:104B500090911401A0911501B09116018816990643
:104B6000AA06BB0610F40C94F51369E873E080E420
:104B700092E00E94A80C0E9451030E945C031092D4
:104B8000C9030C94F513A3019201C301B2010E9461
:104B90002D2B812C912C90ECA92E9FE7B92E811101
:104BA0000C946E164092A5065092A6066092A70637
:104BB0007092A8060C945E16EF920F931F93CF93FA
:104BC000DF93E80134E047FD34E1042E000C550B7F
:104BD00057FF03C0519541955109E32E022F242F11
:104BE000AE010E940326CE01DF91CF911F910F915C
:104BF000EF900895FB01DC0102C005900D92415039
:104C00005040D8F70895A9E0B0E0E9E0F6E20C944E
:104C1000C0296A01F22EB02E102FFBE3AF2EA01692
:104C200008F41BE31F5F012F27E0AE014F5F5F4FCA
:104C30000E946227BC018981982F9970913009F4F4
:104C40003FC09BE2E1FC04C09E2D9170E0FC3AC0A5
:104C50005E2D5071E82FE87083FF46C084E091110B
:104C600001C083E0EF2DE81B8F1508F0E0E0D601CE
:104C70008E2F20E2552351F1992329F0D6019C93E0
:104C8000C60101966C0196012D5F3F4FE2FE24C0E4
:104C90008EE4D6018C9391E411969C931197129611
:104CA0008C93D9018E2F90E281111BC0E20FF32F5C
:104CB000F11D10828EEF9FEF2996ECE00C94DC2919
:104CC0009DE2C6CF90E2C4CF2D9381508111FCCFDD
:104CD000CE0ED11CE0E0D0CF8EE6D6018C9391E6CB
:104CE000DBCF9D938150E0CF482F447082FF3DC0C1
:104CF00084E0911101C083E08F1510F4EF2DE81BC3
:104D0000D6018E2F20E2552309F1992329F0D601EF
:104D10009C93C60101966C0196012D5F3F4FE2FE08
:104D20001BC089E4D6018C938EE411968C93119765
:104D300086E412968C93D9018E2F90E2882309F491
:104D4000B5CF9D938150FACF2D9381508111FCCF27
:104D5000CE0ED11CE0E0D9CF89E6D6018C938EE649
:104D600011968C93119786E6E4CF9B0177FF02C0E2
:104D700030E020E0A1E0B0E0911102C0B0E0A0E09E
:104D8000F9013196AE0FBF1F8B2C912CBB2009F47B
:104D900061C05401EFEFAE1ABE0AAA0DBB1DFA1690
:104DA0001B0619F014F04F2D4A1B511188C0E3FC6B
:104DB00059C07601A42FB0E2A1114FC0C40ED11C7E
:104DC000992309F45BC040E0D6011196F601908367
:104DD0006D01552309F448C0012F060F9A81582F01
:104DE000507184FF03C0913309F4015010160CF088
:104DF00047C0093008F008E0EEE2FE2E5B01A01A81
:104E0000B10885019194819491082F3F320729F4CC
:104E1000D601FC92F60131966F016217730794F187
:104E2000021713077CF5DB01A21BB30BAA24A39482
:104E3000B12CAC0EBD1EAA0DBB1D11968C9121503C
:104E40003109D601119628153905F4F0F601808351
:104E50006D01DBCFB12CA12CA0CFF701B1937F0165
:104E6000A150AACF9111B0CFD601942F50E302C028
:104E70005D9391509111FCCFC40ED11C40E0ACCF9A
:104E800001E0BACF80E3DBCF6217730731F49633CA
:104E900088F4953311F4552369F0F6018083FD0100
:104EA000842F90E2811108C0A40FB11D1C9290E0E4
:104EB00080E002CF81E3F1CF91938150F3CF911144
:104EC00083CF8ACF283008F027E03327DA01990F03
:104ED000311D87FD916000966105710539F43260DE
:104EE0002E5F3D9330E32A95E1F708959F3F30F020
:104EF00080387105610509F03C5F3C5F3D9391305E
:104F000008F08068911DDF93CF931F930F93FF925A
:104F1000EF92192F987F9695E92F96959695E90F20
:104F2000FF27EE53FF4F99273327EE24FF24A701D5
:104F3000E70105900894079428F4360FE71EF81E41
:104F4000491F511D660F771F881F991F0694A1F7EF
:104F50000590079428F4E70EF81E491F561FC11D3F
:104F6000770F881F991F661F0694A1F70590079475
:104F700028F4F80E491F561FC71FD11D880F991F0F
:104F8000661F771F0694A1F70590079420F4490F38
:104F9000561FC71FD81F990F661F771F881F0694BB
:104FA000A9F784911095177041F0D695C79557953C
:104FB0004795F794E7941A95C1F7E8E6F0E068940E
:104FC0001590159135916591959105907FE27395B6
:104FD000E118F10A430B560BC90BD009C0F7E10CDD
:104FE000F11E431F561FC91FD01D7EF4703311F4EC
:104FF0008A95E6CFE894015030F0080F0AF40027B4
:10500000021708F4202F2395022F7A3328F079E332
:105010007D932A95E9F710C07D932A9589F6069429
:1050200097956795379517951794E118F10A430BF3
:10503000560BC90BD00998F023957E9173957A335E
:1050400008F070E37C932013B8F77E9170617D9334
:1050500030F0839571E37D9370E32A95E1F7112495
:10506000EF90FF900F911F91CF91DF91992787FDCE
:10507000909508950E947C2808F481E00895E894B2
:1050800009C097FB3EF490958095709561957F4F90
:105090008F4F9F4F9923A9F0F92F96E9BB2793953E
:1050A000F695879577956795B795F111F8CFFAF44E
:1050B000BB0F11F460FF1BC06F5F7F4F8F4F9F4F7F
:1050C00016C0882311F096E911C0772321F09EE8DD
:1050D000872F762F05C0662371F096E8862F70E043
:1050E00060E02AF09A95660F771F881FDAF7880F1D
:1050F0009695879597F90895990F0008550FAA0B73
:10510000E0E8FEEF16161706E807F907C0F01216DA
:105110001306E407F50798F0621B730B840B950BDD
:1051200039F40A2661F0232B242B252B21F4089532
:105130000A2609F4A140A6958FEF811D811D0895CF
:105140000E94B3280C9424290E94162938F00E944A
:105150001D2920F0952311F00C940D290C9413298E
:1051600011240C9458290E94352970F3959FC1F39E
:10517000950F50E0551F629FF001729FBB27F00D05
:10518000B11D639FAA27F00DB11DAA1F649F66275A
:10519000B00DA11D661F829F2227B00DA11D621FA9
:1051A000739FB00DA11D621F839FA00D611D221F63
:1051B000749F3327A00D611D231F849F600D211D47
:1051C000822F762F6A2F11249F5750409AF0F1F0CA
:1051D00088234AF0EE0FFF1FBB1F661F771F881F33
:1051E00091505040A9F79E3F510580F00C940D2935
:1051F0000C9458295F3FE4F3983ED4F38695779555
:105200006795B795F795E7959F5FC1F7FE2B880FD8
:10521000911D9695879597F9089597F99F6780E86E
:1052200070E060E008959FEF80EC089500240A94F8
:105230001616170618060906089500240A94121671
:105240001306140605060895092E0394000C11F4A4
:10525000882352F0BB0F40F4BF2B11F460FF04C051
:105260006F5F7F4F8F4F9F4F089557FD9058440FAA
:10527000551F59F05F3F71F04795880F97FB991FB5
:1052800061F09F3F79F08795089512161306140672
:10529000551FF2CF4695F1DF08C0161617061806FF
:1052A000991FF1CF86957105610508940895E894DA
:1052B000BB2766277727CB0197F90895DB018F93EA
:1052C0009F930E94AF29BF91AF91A29F800D911D26
:1052D000A39F900DB29F900D11240895A1E21A2E64
:1052E000AA1BBB1BFD010DC0AA1FBB1FEE1FFF1F8A
:1052F000A217B307E407F50720F0A21BB30BE40BDA
:10530000F50B661F771F881F991F1A9469F7609520
:105310007095809590959B01AC01BD01CF010895DA
:10532000052E97FB1EF400940E94A72957FD07D075
:105330000E946E2907FC03D04EF40C94A7295095C7
:105340004095309521953F4F4F4F5F4F0895909571
:105350008095709561957F4F8F4F9F4F08950E9464
:10536000F129A59F900DB49F900DA49F800D911DD4
:10537000112408952F923F924F925F926F927F92E5
:105380008F929F92AF92BF92CF92DF92EF92FF9255
:105390000F931F93CF93DF93CDB7DEB7CA1BDB0B01
:1053A0000FB6F894DEBF0FBECDBF09942A883988A6
:1053B00048885F846E847D848C849B84AA84B984AD
:1053C000C884DF80EE80FD800C811B81AA81B981B9
:1053D000CE0FD11D0FB6F894DEBF0FBECDBFED01CD
:1053E0000895A29FB001B39FC001A39F700D811DBE
:1053F0001124911DB29F700D811D1124911D0895DE
:10540000AA1BBB1B51E107C0AA1FBB1FA617B707EA
:1054100010F0A61BB70B881F991F5A95A9F7809506
:105420009095BC01CD010895EE0FFF1F0590F491FA
:10543000E02D09945058BB27AA270E94322A0C94C9
:1054400024290E94162938F00E941D2920F039F4E1
:105450009F3F19F426F40C9413290EF4E095E7FB12
:105460000C940D29E92F0E94352958F3BA176207C9
:1054700073078407950720F079F4A6F50C94572953
:105480000EF4E0950B2EBA2FA02D0B01B90190015F
:105490000C01CA01A0011124FF27591B99F0593FA3
:1054A00050F4503E68F11A16F040A22F232F342FEB
:1054B0004427585FF3CF469537952795A795F04039
:1054C0005395C9F77EF41F16BA0B620B730B840B4E
:1054D000BAF09150A1F0FF0FBB1F661F771F881F06
:1054E000C2F70EC0BA0F621F731F841F48F487955E
:1054F00077956795B795F7959E3F08F0B0CF939550
:10550000880F08F09927EE0F9795879508950E94C8
:105510009B2A0C9424290E941D2958F00E941629C8
:1055200040F029F45F3F29F00C940D2951110C949F
:1055300058290C9413290E94352968F39923B1F353
:10554000552391F3951B550BBB27AA2762177307A9
:10555000840738F09F5F5F4F220F331F441FAA1F3D
:10556000A9F335D00E2E3AF0E0E832D091505040F9
:10557000E695001CCAF72BD0FE2F29D0660F771FA7
:10558000881FBB1F261737074807AB07B0E809F08D
:10559000BB0B802DBF01FF2793585F4F3AF09E3F12
:1055A000510578F00C940D290C9458295F3FE4F3D1
:1055B000983ED4F3869577956795B795F7959F5F55
:1055C000C9F7880F911D9695879597F90895E1E0A1
:1055D000660F771F881FBB1F621773078407BA0700
:1055E00020F0621B730B840BBA0BEE1F88F7E0955B
:1055F00008950E943D2988F09F5798F0B92F992768
:10560000B751B0F0E1F0660F771F881F991F1AF0AD
:10561000BA95C9F714C0B13091F00E945729B1E092
:1056200008950C945729672F782F8827B85F39F091
:10563000B93FCCF3869577956795B395D9F73EF446
:1056400090958095709561957F4F8F4F9F4F0895EE
:105650000E947C2808F48FEF08950E947C28880B14
:10566000990B0895FB01DC018D91019080190110C7
:10567000D9F3990B0895FB01DC0101900D920020F4
:10568000E1F70895AEE0B0E0E8E4FBE20C94C8294D
:105690000D891E898F89988D26E02C831A830983B2
:1056A00097FF02C080E090E801979E838D83AE0152
:1056B000455E5F4F698D7A8DCE0101960E94722BF7
:1056C0004D815E8157FD0AC02F81388542175307EF
:1056D0000CF49A01020F131FF80110822E96E4E0D9
:1056E0000C94E429ABE0B0E0E8E7FBE20C94BA29C3
:1056F0007C013B018A01FC0117821682838181FFB4
:10570000C8C1CE0101965C01F7019381F30193FDBD
:10571000859193FF81913F01882309F453C185321C
:1057200039F493FD859193FF81913F01853229F4EE
:10573000B70190E00E94622DE7CF912C212C312CF3
:10574000FFE1F31538F08B3211F190F4803209F15A
:10575000833229F137FC3CC020ED280F2A3050F568
:1057600036FE20C08AE0989E200D1124922E06C09D
:105770008D3291F0803371F7689430F8F30193FD26
:10578000859193FF81913F018111DACF21C0689407
:1057900031F8689432F8F2CF689433F8EFCF689418
:1057A00034F8ECCFEAE02E9E200D1124222E6894CE
:1057B00035F8E4CF8E3229F436FC04C1689436F80B
:1057C000DDCF8C3619F4689437F8D8CF8836B1F22B
:1057D000982F9F7D95549330E0F08336A1F1833765
:1057E000C1F1833509F063C02801F2E04F0E511C6E
:1057F000F801C080D180692D70E036FC02C06FEFE7
:105800007FEFC6010E944C2D4C01689437F882014D
:105810000AC00C5F1F4FFFE3F98388248394912C07
:105820006501E89437F833FE2DC0522C81149104A1
:1058300071F5552009F468CFB70180E290E00E942D
:10584000622D5A94F6CFF801808189830E5F1F4F35
:10585000E4CF2801F2E04F0E511CF801C080D18046
:10586000692D70E036FC02C06FEF7FEFC6010E9429
:10587000572D4C018201D5CFB70180E290E00E9404
:10588000622D2A942814190409F0B0F7CECFF6013E
:1058900037FC859137FE81916F01B70190E00E943E
:1058A000622D51105A94F1E08F1A9108BFCF8436BF
:1058B00019F0893609F077C0F80137FE6BC06081B6
:1058C0007181828193810C5F1F4FF32DFF763F2EF4
:1058D00097FF09C090958095709561957F4F8F4F88
:1058E0009F4F689437F82AE030E0A5010E94922D7E
:1058F000C82ECA188C2C432C36FE0CC0E89440F8F5
:10590000C91440F434FE05C032FC03C0F32DFE7E02
:105910004F2E892C44FE95C0FE01EC0DF11D8081B7
:10592000803309F087C0242D297E422E842D887073
:10593000582E43FC95C040FE8FC09C2C821418F456
:105940002C0C922C981844FE91C0B70180E390E093
:105950000E94622D42FE09C088E790E041FE02C02D
:1059600088E590E0B7010E94622DC91408F48AC04E
:10597000CA94D12C9FEFC91AD90ACA0CDB1CF601B4
:1059800082916F01B70190E00E94622DAC14BD04BA
:10599000B1F74FCF60817181072E000C880B990BF6
:1059A0000E5F1F4F92CFD32CE894D4F82AE030E05A
:1059B000853739F1232D297FD22E8F3601F148F416
:1059C0008835A9F0F701868197812B96E2E10C9446
:1059D000D629803749F08837A9F7D4FE02C06894E9
:1059E000D2F820E130E00DC06894D4F8F6CF34FE50
:1059F00003C0822F8660D82E20E132E002C028E06A
:105A000030E0F801D7FE0FC06081718182819381FF
:105A10000C5F1F4FA5010E94922DC82ECA183D2C65
:105A2000E89437F867CF6081718190E080E00E5F85
:105A30001F4FF0CF42FC02C0839478CF83948394AD
:105A400075CF842D867809F471CFF6CFB70180E247
:105A500090E00E94622D83948214C0F3512C73CF86
:105A6000522C5818821408F46ECFF8CF842D867803
:105A700009F47BCF8BE241FE80E247FC8DE2B70167
:105A800090E071CFB70180E390E00E94622D9A947C
:105A90006CCF8FEF9FEF99CFFC0105906150704064
:105AA0000110D8F7809590958E0F9F1F0895FC01E7
:105AB0006150704001900110D8F7809590958E0F3D
:105AC0009F1F08950F931F93CF93DF93182F092FD4
:105AD000EB018B8181FD09C01FEF0FEF812F902F0C
